{
  "_format": "hh-sol-artifact-1",
  "contractName": "MultiSig",
  "sourceName": "contracts/Lock.sol",
  "abi": [
    {
      "inputs": [],
      "stateMutability": "nonpayable",
      "type": "constructor"
    },
    {
      "anonymous": false,
      "inputs": [
        {
          "indexed": false,
          "internalType": "address",
          "name": "approver",
          "type": "address"
        }
      ],
      "name": "ActionApproved",
      "type": "event"
    },
    {
      "inputs": [],
      "name": "approvalsCount",
      "outputs": [
        {
          "internalType": "uint8",
          "name": "",
          "type": "uint8"
        }
      ],
      "stateMutability": "view",
      "type": "function"
    },
    {
      "inputs": [],
      "name": "approveAction",
      "outputs": [],
      "stateMutability": "nonpayable",
      "type": "function"
    },
    {
      "inputs": [
        {
          "internalType": "address",
          "name": "",
          "type": "address"
        }
      ],
      "name": "approved",
      "outputs": [
        {
          "internalType": "bool",
          "name": "",
          "type": "bool"
        }
      ],
      "stateMutability": "view",
      "type": "function"
    },
    {
      "inputs": [
        {
          "internalType": "uint256",
          "name": "",
          "type": "uint256"
        }
      ],
      "name": "approvers",
      "outputs": [
        {
          "internalType": "address",
          "name": "",
          "type": "address"
        }
      ],
      "stateMutability": "view",
      "type": "function"
    },
    {
      "inputs": [],
      "name": "executeAction",
      "outputs": [
        {
          "internalType": "bool",
          "name": "",
          "type": "bool"
        }
      ],
      "stateMutability": "view",
      "type": "function"
    },
    {
      "inputs": [
        {
          "internalType": "address",
          "name": "_address",
          "type": "address"
        }
      ],
      "name": "isApprover",
      "outputs": [
        {
          "internalType": "bool",
          "name": "",
          "type": "bool"
        }
      ],
      "stateMutability": "view",
      "type": "function"
    },
    {
      "inputs": [],
      "name": "requiredApprovals",
      "outputs": [
        {
          "internalType": "uint8",
          "name": "",
          "type": "uint8"
        }
      ],
      "stateMutability": "view",
      "type": "function"
    }
  ],
  "bytecode": "0x60806040526003600260016101000a81548160ff021916908360ff16021790555034801561002c57600080fd5b506040518060600160405280733c44cdddb6a900fa2b585dd299e03d12fa4293bc73ffffffffffffffffffffffffffffffffffffffff1673ffffffffffffffffffffffffffffffffffffffff1681526020017390f79bf6eb2c4f870365e785982e1f101e93b90673ffffffffffffffffffffffffffffffffffffffff1673ffffffffffffffffffffffffffffffffffffffff1681526020017315d34aaf54267db7d7c367839aaf71a00a2c6a6573ffffffffffffffffffffffffffffffffffffffff1673ffffffffffffffffffffffffffffffffffffffff16815250600090600361011892919061011e565b506101c5565b828054828255906000526020600020908101928215610197579160200282015b828111156101965782518260006101000a81548173ffffffffffffffffffffffffffffffffffffffff021916908373ffffffffffffffffffffffffffffffffffffffff1602179055509160200191906001019061013e565b5b5090506101a491906101a8565b5090565b5b808211156101c15760008160009055506001016101a9565b5090565b61079f806101d46000396000f3fe608060405234801561001057600080fd5b506004361061007d5760003560e01c806399c1aadc1161005b57806399c1aadc146100da578063d3650fb8146100f8578063d8b964e614610128578063fa2c689e146101585761007d565b80636d218e4814610082578063805f0f00146100b25780639135ee22146100d0575b600080fd5b61009c600480360381019061009791906104d2565b610176565b6040516100a9919061051a565b60405180910390f35b6100ba61021e565b6040516100c7919061051a565b60405180910390f35b6100d861024d565b005b6100e26103ea565b6040516100ef9190610551565b60405180910390f35b610112600480360381019061010d91906105a2565b6103fd565b60405161011f91906105de565b60405180910390f35b610142600480360381019061013d91906104d2565b61043c565b60405161014f919061051a565b60405180910390f35b61016061045c565b60405161016d9190610551565b60405180910390f35b600080600090505b600080549050811015610213578273ffffffffffffffffffffffffffffffffffffffff16600082815481106101b6576101b56105f9565b5b9060005260206000200160009054906101000a900473ffffffffffffffffffffffffffffffffffffffff1673ffffffffffffffffffffffffffffffffffffffff1603610206576001915050610219565b808060010191505061017e565b50600090505b919050565b6000600260019054906101000a900460ff1660ff16600260009054906101000a900460ff1660ff161015905090565b61025633610176565b610295576040517f08c379a000000000000000000000000000000000000000000000000000000000815260040161028c90610685565b60405180910390fd5b600160003373ffffffffffffffffffffffffffffffffffffffff1673ffffffffffffffffffffffffffffffffffffffff16815260200190815260200160002060009054906101000a900460ff1615610322576040517f08c379a0000000000000000000000000000000000000000000000000000000008152600401610319906106f1565b60405180910390fd5b60018060003373ffffffffffffffffffffffffffffffffffffffff1673ffffffffffffffffffffffffffffffffffffffff16815260200190815260200160002060006101000a81548160ff0219169083151502179055506002600081819054906101000a900460ff168092919061039890610740565b91906101000a81548160ff021916908360ff160217905550507fc27063b13f068c906426cb21fe4cd7d9b11b516de8e4daf1a608a67a6c1a204a336040516103e091906105de565b60405180910390a1565b600260019054906101000a900460ff1681565b6000818154811061040d57600080fd5b906000526020600020016000915054906101000a900473ffffffffffffffffffffffffffffffffffffffff1681565b60016020528060005260406000206000915054906101000a900460ff1681565b600260009054906101000a900460ff1681565b600080fd5b600073ffffffffffffffffffffffffffffffffffffffff82169050919050565b600061049f82610474565b9050919050565b6104af81610494565b81146104ba57600080fd5b50565b6000813590506104cc816104a6565b92915050565b6000602082840312156104e8576104e761046f565b5b60006104f6848285016104bd565b91505092915050565b60008115159050919050565b610514816104ff565b82525050565b600060208201905061052f600083018461050b565b92915050565b600060ff82169050919050565b61054b81610535565b82525050565b60006020820190506105666000830184610542565b92915050565b6000819050919050565b61057f8161056c565b811461058a57600080fd5b50565b60008135905061059c81610576565b92915050565b6000602082840312156105b8576105b761046f565b5b60006105c68482850161058d565b91505092915050565b6105d881610494565b82525050565b60006020820190506105f360008301846105cf565b92915050565b7f4e487b7100000000000000000000000000000000000000000000000000000000600052603260045260246000fd5b600082825260208201905092915050565b7f4e6f7420616e20617070726f7665720000000000000000000000000000000000600082015250565b600061066f600f83610628565b915061067a82610639565b602082019050919050565b6000602082019050818103600083015261069e81610662565b9050919050565b7f416c726561647920617070726f76656400000000000000000000000000000000600082015250565b60006106db601083610628565b91506106e6826106a5565b602082019050919050565b6000602082019050818103600083015261070a816106ce565b9050919050565b7f4e487b7100000000000000000000000000000000000000000000000000000000600052601160045260246000fd5b600061074b82610535565b915060ff820361075e5761075d610711565b5b60018201905091905056fea2646970667358221220a25962262114a4b0f1894b9e2bb8f72272d10faa2b81831d45bc69d1a454b95164736f6c634300081b0033",
  "linkReferences": {},
  "deployedLinkReferences": {}
}