{
  "_format": "hh-sol-artifact-1",
  "contractName": "MultiSig",
  "sourceName": "contracts/Lock.sol",
  "abi": [
    {
      "inputs": [
        {
          "internalType": "address[]",
          "name": "_approvers",
          "type": "address[]"
        }
      ],
      "stateMutability": "nonpayable",
      "type": "constructor"
    },
    {
      "anonymous": false,
      "inputs": [
        {
          "indexed": false,
          "internalType": "address",
          "name": "approver",
          "type": "address"
        }
      ],
      "name": "ActionApproved",
      "type": "event"
    },
    {
      "inputs": [],
      "name": "approvalsCount",
      "outputs": [
        {
          "internalType": "uint8",
          "name": "",
          "type": "uint8"
        }
      ],
      "stateMutability": "view",
      "type": "function"
    },
    {
      "inputs": [],
      "name": "approveAction",
      "outputs": [],
      "stateMutability": "nonpayable",
      "type": "function"
    },
    {
      "inputs": [
        {
          "internalType": "address",
          "name": "",
          "type": "address"
        }
      ],
      "name": "approved",
      "outputs": [
        {
          "internalType": "bool",
          "name": "",
          "type": "bool"
        }
      ],
      "stateMutability": "view",
      "type": "function"
    },
    {
      "inputs": [
        {
          "internalType": "uint256",
          "name": "",
          "type": "uint256"
        }
      ],
      "name": "approvers",
      "outputs": [
        {
          "internalType": "address",
          "name": "",
          "type": "address"
        }
      ],
      "stateMutability": "view",
      "type": "function"
    },
    {
      "inputs": [],
      "name": "executeAction",
      "outputs": [
        {
          "internalType": "bool",
          "name": "",
          "type": "bool"
        }
      ],
      "stateMutability": "view",
      "type": "function"
    },
    {
      "inputs": [
        {
          "internalType": "address",
          "name": "_address",
          "type": "address"
        }
      ],
      "name": "isApprover",
      "outputs": [
        {
          "internalType": "bool",
          "name": "",
          "type": "bool"
        }
      ],
      "stateMutability": "view",
      "type": "function"
    },
    {
      "inputs": [],
      "name": "requiredApprovals",
      "outputs": [
        {
          "internalType": "uint8",
          "name": "",
          "type": "uint8"
        }
      ],
      "stateMutability": "view",
      "type": "function"
    }
  ],
  "bytecode": "0x60806040526003600260016101000a81548160ff021916908360ff16021790555034801561002c57600080fd5b50604051610ad4380380610ad4833981810160405281019061004e91906102dd565b806000908051906020019061006492919061006b565b5050610326565b8280548282559060005260206000209081019282156100e4579160200282015b828111156100e35782518260006101000a81548173ffffffffffffffffffffffffffffffffffffffff021916908373ffffffffffffffffffffffffffffffffffffffff1602179055509160200191906001019061008b565b5b5090506100f191906100f5565b5090565b5b8082111561010e5760008160009055506001016100f6565b5090565b6000604051905090565b600080fd5b600080fd5b600080fd5b6000601f19601f8301169050919050565b7f4e487b7100000000000000000000000000000000000000000000000000000000600052604160045260246000fd5b6101748261012b565b810181811067ffffffffffffffff821117156101935761019261013c565b5b80604052505050565b60006101a6610112565b90506101b2828261016b565b919050565b600067ffffffffffffffff8211156101d2576101d161013c565b5b602082029050602081019050919050565b600080fd5b600073ffffffffffffffffffffffffffffffffffffffff82169050919050565b6000610213826101e8565b9050919050565b61022381610208565b811461022e57600080fd5b50565b6000815190506102408161021a565b92915050565b6000610259610254846101b7565b61019c565b9050808382526020820190506020840283018581111561027c5761027b6101e3565b5b835b818110156102a557806102918882610231565b84526020840193505060208101905061027e565b5050509392505050565b600082601f8301126102c4576102c3610126565b5b81516102d4848260208601610246565b91505092915050565b6000602082840312156102f3576102f261011c565b5b600082015167ffffffffffffffff81111561031157610310610121565b5b61031d848285016102af565b91505092915050565b61079f806103356000396000f3fe608060405234801561001057600080fd5b506004361061007d5760003560e01c806399c1aadc1161005b57806399c1aadc146100da578063d3650fb8146100f8578063d8b964e614610128578063fa2c689e146101585761007d565b80636d218e4814610082578063805f0f00146100b25780639135ee22146100d0575b600080fd5b61009c600480360381019061009791906104d2565b610176565b6040516100a9919061051a565b60405180910390f35b6100ba61021e565b6040516100c7919061051a565b60405180910390f35b6100d861024d565b005b6100e26103ea565b6040516100ef9190610551565b60405180910390f35b610112600480360381019061010d91906105a2565b6103fd565b60405161011f91906105de565b60405180910390f35b610142600480360381019061013d91906104d2565b61043c565b60405161014f919061051a565b60405180910390f35b61016061045c565b60405161016d9190610551565b60405180910390f35b600080600090505b600080549050811015610213578273ffffffffffffffffffffffffffffffffffffffff16600082815481106101b6576101b56105f9565b5b9060005260206000200160009054906101000a900473ffffffffffffffffffffffffffffffffffffffff1673ffffffffffffffffffffffffffffffffffffffff1603610206576001915050610219565b808060010191505061017e565b50600090505b919050565b6000600260019054906101000a900460ff1660ff16600260009054906101000a900460ff1660ff161015905090565b61025633610176565b610295576040517f08c379a000000000000000000000000000000000000000000000000000000000815260040161028c90610685565b60405180910390fd5b600160003373ffffffffffffffffffffffffffffffffffffffff1673ffffffffffffffffffffffffffffffffffffffff16815260200190815260200160002060009054906101000a900460ff1615610322576040517f08c379a0000000000000000000000000000000000000000000000000000000008152600401610319906106f1565b60405180910390fd5b60018060003373ffffffffffffffffffffffffffffffffffffffff1673ffffffffffffffffffffffffffffffffffffffff16815260200190815260200160002060006101000a81548160ff0219169083151502179055506002600081819054906101000a900460ff168092919061039890610740565b91906101000a81548160ff021916908360ff160217905550507fc27063b13f068c906426cb21fe4cd7d9b11b516de8e4daf1a608a67a6c1a204a336040516103e091906105de565b60405180910390a1565b600260019054906101000a900460ff1681565b6000818154811061040d57600080fd5b906000526020600020016000915054906101000a900473ffffffffffffffffffffffffffffffffffffffff1681565b60016020528060005260406000206000915054906101000a900460ff1681565b600260009054906101000a900460ff1681565b600080fd5b600073ffffffffffffffffffffffffffffffffffffffff82169050919050565b600061049f82610474565b9050919050565b6104af81610494565b81146104ba57600080fd5b50565b6000813590506104cc816104a6565b92915050565b6000602082840312156104e8576104e761046f565b5b60006104f6848285016104bd565b91505092915050565b60008115159050919050565b610514816104ff565b82525050565b600060208201905061052f600083018461050b565b92915050565b600060ff82169050919050565b61054b81610535565b82525050565b60006020820190506105666000830184610542565b92915050565b6000819050919050565b61057f8161056c565b811461058a57600080fd5b50565b60008135905061059c81610576565b92915050565b6000602082840312156105b8576105b761046f565b5b60006105c68482850161058d565b91505092915050565b6105d881610494565b82525050565b60006020820190506105f360008301846105cf565b92915050565b7f4e487b7100000000000000000000000000000000000000000000000000000000600052603260045260246000fd5b600082825260208201905092915050565b7f4e6f7420616e20617070726f7665720000000000000000000000000000000000600082015250565b600061066f600f83610628565b915061067a82610639565b602082019050919050565b6000602082019050818103600083015261069e81610662565b9050919050565b7f416c726561647920617070726f76656400000000000000000000000000000000600082015250565b60006106db601083610628565b91506106e6826106a5565b602082019050919050565b6000602082019050818103600083015261070a816106ce565b9050919050565b7f4e487b7100000000000000000000000000000000000000000000000000000000600052601160045260246000fd5b600061074b82610535565b915060ff820361075e5761075d610711565b5b60018201905091905056fea2646970667358221220e941d77a7ec33612c0f8610626544faf8040f4d1b906a6c2b46d22b704b75e5864736f6c634300081b0033",
  "linkReferences": {},
  "deployedLinkReferences": {}
}